{
  "contractName": "FoodSupplyChain",
  "abi": [
    {
      "anonymous": false,
      "inputs": [
        {
          "indexed": false,
          "internalType": "uint256",
          "name": "id",
          "type": "uint256"
        },
        {
          "indexed": false,
          "internalType": "string",
          "name": "name",
          "type": "string"
        },
        {
          "indexed": false,
          "internalType": "string",
          "name": "origin",
          "type": "string"
        },
        {
          "indexed": false,
          "internalType": "address",
          "name": "owner",
          "type": "address"
        }
      ],
      "name": "FoodItemAdded",
      "type": "event"
    },
    {
      "anonymous": false,
      "inputs": [
        {
          "indexed": false,
          "internalType": "uint256",
          "name": "id",
          "type": "uint256"
        },
        {
          "indexed": false,
          "internalType": "uint256",
          "name": "price",
          "type": "uint256"
        }
      ],
      "name": "FoodItemPriceUpdated",
      "type": "event"
    },
    {
      "anonymous": false,
      "inputs": [
        {
          "indexed": false,
          "internalType": "uint256",
          "name": "id",
          "type": "uint256"
        },
        {
          "indexed": false,
          "internalType": "address",
          "name": "newOwner",
          "type": "address"
        }
      ],
      "name": "FoodItemSold",
      "type": "event"
    },
    {
      "anonymous": false,
      "inputs": [
        {
          "indexed": false,
          "internalType": "uint256",
          "name": "id",
          "type": "uint256"
        },
        {
          "indexed": false,
          "internalType": "string",
          "name": "currentLocation",
          "type": "string"
        },
        {
          "indexed": false,
          "internalType": "string",
          "name": "status",
          "type": "string"
        }
      ],
      "name": "FoodItemUpdated",
      "type": "event"
    },
    {
      "inputs": [
        {
          "internalType": "uint256",
          "name": "",
          "type": "uint256"
        }
      ],
      "name": "foodItems",
      "outputs": [
        {
          "internalType": "uint256",
          "name": "id",
          "type": "uint256"
        },
        {
          "internalType": "string",
          "name": "name",
          "type": "string"
        },
        {
          "internalType": "string",
          "name": "origin",
          "type": "string"
        },
        {
          "internalType": "string",
          "name": "currentLocation",
          "type": "string"
        },
        {
          "internalType": "string",
          "name": "status",
          "type": "string"
        },
        {
          "internalType": "uint256",
          "name": "price",
          "type": "uint256"
        },
        {
          "internalType": "address",
          "name": "owner",
          "type": "address"
        }
      ],
      "stateMutability": "view",
      "type": "function",
      "constant": true
    },
    {
      "inputs": [],
      "name": "itemCount",
      "outputs": [
        {
          "internalType": "uint256",
          "name": "",
          "type": "uint256"
        }
      ],
      "stateMutability": "view",
      "type": "function",
      "constant": true
    },
    {
      "inputs": [
        {
          "internalType": "string",
          "name": "_name",
          "type": "string"
        },
        {
          "internalType": "string",
          "name": "_origin",
          "type": "string"
        }
      ],
      "name": "addFoodItem",
      "outputs": [],
      "stateMutability": "nonpayable",
      "type": "function"
    },
    {
      "inputs": [
        {
          "internalType": "uint256",
          "name": "_id",
          "type": "uint256"
        },
        {
          "internalType": "string",
          "name": "_currentLocation",
          "type": "string"
        },
        {
          "internalType": "string",
          "name": "_status",
          "type": "string"
        }
      ],
      "name": "updateFoodItem",
      "outputs": [],
      "stateMutability": "nonpayable",
      "type": "function"
    },
    {
      "inputs": [
        {
          "internalType": "uint256",
          "name": "_id",
          "type": "uint256"
        },
        {
          "internalType": "uint256",
          "name": "_price",
          "type": "uint256"
        }
      ],
      "name": "updateFoodItemPrice",
      "outputs": [],
      "stateMutability": "nonpayable",
      "type": "function"
    },
    {
      "inputs": [
        {
          "internalType": "uint256",
          "name": "_id",
          "type": "uint256"
        }
      ],
      "name": "buyFoodItem",
      "outputs": [],
      "stateMutability": "payable",
      "type": "function",
      "payable": true
    },
    {
      "inputs": [
        {
          "internalType": "uint256",
          "name": "_id",
          "type": "uint256"
        }
      ],
      "name": "getFoodItem",
      "outputs": [
        {
          "components": [
            {
              "internalType": "uint256",
              "name": "id",
              "type": "uint256"
            },
            {
              "internalType": "string",
              "name": "name",
              "type": "string"
            },
            {
              "internalType": "string",
              "name": "origin",
              "type": "string"
            },
            {
              "internalType": "string",
              "name": "currentLocation",
              "type": "string"
            },
            {
              "internalType": "string",
              "name": "status",
              "type": "string"
            },
            {
              "internalType": "uint256",
              "name": "price",
              "type": "uint256"
            },
            {
              "internalType": "address",
              "name": "owner",
              "type": "address"
            },
            {
              "internalType": "string[]",
              "name": "history",
              "type": "string[]"
            }
          ],
          "internalType": "struct FoodSupplyChain.FoodItem",
          "name": "",
          "type": "tuple"
        }
      ],
      "stateMutability": "view",
      "type": "function",
      "constant": true
    },
    {
      "inputs": [
        {
          "internalType": "uint256",
          "name": "_id",
          "type": "uint256"
        }
      ],
      "name": "getFoodItemHistory",
      "outputs": [
        {
          "internalType": "string[]",
          "name": "",
          "type": "string[]"
        }
      ],
      "stateMutability": "view",
      "type": "function",
      "constant": true
    }
  ],
  "bytecode": "0x608060405234801561001057600080fd5b506123bd806100206000396000f3fe60806040526004361061007b5760003560e01c8063478feb8c1161004e578063478feb8c14610145578063594695a3146101825780636bfb0d01146101ab578063c90d656a146101d65761007b565b806302f4ce5e146100805780630ac52e651461009c5780631b8de3cd146100df5780631f4ab5e714610108575b600080fd5b61009a60048036038101906100959190611783565b6101ff565b005b3480156100a857600080fd5b506100c360048036038101906100be9190611783565b610445565b6040516100d69796959493929190611f61565b60405180910390f35b3480156100eb57600080fd5b50610106600480360381019061010191906117ac565b6106c7565b005b34801561011457600080fd5b5061012f600480360381019061012a9190611783565b610852565b60405161013c9190611e63565b60405180910390f35b34801561015157600080fd5b5061016c60048036038101906101679190611783565b610c0a565b6040516101799190611dc1565b60405180910390f35b34801561018e57600080fd5b506101a960048036038101906101a4919061182b565b610cf8565b005b3480156101b757600080fd5b506101c0610df8565b6040516101cd9190611e85565b60405180910390f35b3480156101e257600080fd5b506101fd60048036038101906101f89190611717565b610dfe565b005b60008060008381526020019081526020016000209050806005015434101561025c576040517f08c379a000000000000000000000000000000000000000000000000000000000815260040161025390611e23565b60405180910390fd5b3373ffffffffffffffffffffffffffffffffffffffff168160060160009054906101000a900473ffffffffffffffffffffffffffffffffffffffff1673ffffffffffffffffffffffffffffffffffffffff1614156102ef576040517f08c379a00000000000000000000000000000000000000000000000000000000081526004016102e690611e43565b60405180910390fd5b60008160060160009054906101000a900473ffffffffffffffffffffffffffffffffffffffff1690508073ffffffffffffffffffffffffffffffffffffffff166108fc349081150290604051600060405180830381858888f1935050505015801561035e573d6000803e3d6000fd5b50338260060160006101000a81548173ffffffffffffffffffffffffffffffffffffffff021916908373ffffffffffffffffffffffffffffffffffffffff160217905550816007016103af33611057565b6040516020016103bf9190611d7d565b6040516020818303038152906040529080600181540180825580915050600190039060005260206000200160009091909190915090805190602001906104069291906114d8565b507f4d79a8902a0a12b1b381d34ab87cb8587b272d22f022c5a4317a0157f159d3e58333604051610438929190611ea0565b60405180910390a1505050565b600060205280600052604060002060009150905080600001549080600101805461046e90612226565b80601f016020809104026020016040519081016040528092919081815260200182805461049a90612226565b80156104e75780601f106104bc576101008083540402835291602001916104e7565b820191906000526020600020905b8154815290600101906020018083116104ca57829003601f168201915b5050505050908060020180546104fc90612226565b80601f016020809104026020016040519081016040528092919081815260200182805461052890612226565b80156105755780601f1061054a57610100808354040283529160200191610575565b820191906000526020600020905b81548152906001019060200180831161055857829003601f168201915b50505050509080600301805461058a90612226565b80601f01602080910402602001604051908101604052809291908181526020018280546105b690612226565b80156106035780601f106105d857610100808354040283529160200191610603565b820191906000526020600020905b8154815290600101906020018083116105e657829003601f168201915b50505050509080600401805461061890612226565b80601f016020809104026020016040519081016040528092919081815260200182805461064490612226565b80156106915780601f1061066657610100808354040283529160200191610691565b820191906000526020600020905b81548152906001019060200180831161067457829003601f168201915b5050505050908060050154908060060160009054906101000a900473ffffffffffffffffffffffffffffffffffffffff16905087565b3373ffffffffffffffffffffffffffffffffffffffff1660008085815260200190815260200160002060060160009054906101000a900473ffffffffffffffffffffffffffffffffffffffff1673ffffffffffffffffffffffffffffffffffffffff161461076a576040517f08c379a000000000000000000000000000000000000000000000000000000000815260040161076190611de3565b60405180910390fd5b60008060008581526020019081526020016000209050828160030190805190602001906107989291906114d8565b50818160040190805190602001906107b19291906114d8565b508060070182846040516020016107c9929190611d4e565b6040516020818303038152906040529080600181540180825580915050600190039060005260206000200160009091909190915090805190602001906108109291906114d8565b507f82c12b058b6c68eea24959095e7861e85eb7ac9be992119d3b75e8f448bb5f1b84848460405161084493929190611ec9565b60405180910390a150505050565b61085a61155e565b600080838152602001908152602001600020604051806101000160405290816000820154815260200160018201805461089290612226565b80601f01602080910402602001604051908101604052809291908181526020018280546108be90612226565b801561090b5780601f106108e05761010080835404028352916020019161090b565b820191906000526020600020905b8154815290600101906020018083116108ee57829003601f168201915b5050505050815260200160028201805461092490612226565b80601f016020809104026020016040519081016040528092919081815260200182805461095090612226565b801561099d5780601f106109725761010080835404028352916020019161099d565b820191906000526020600020905b81548152906001019060200180831161098057829003601f168201915b505050505081526020016003820180546109b690612226565b80601f01602080910402602001604051908101604052809291908181526020018280546109e290612226565b8015610a2f5780601f10610a0457610100808354040283529160200191610a2f565b820191906000526020600020905b815481529060010190602001808311610a1257829003601f168201915b50505050508152602001600482018054610a4890612226565b80601f0160208091040260200160405190810160405280929190818152602001828054610a7490612226565b8015610ac15780601f10610a9657610100808354040283529160200191610ac1565b820191906000526020600020905b815481529060010190602001808311610aa457829003601f168201915b50505050508152602001600582015481526020016006820160009054906101000a900473ffffffffffffffffffffffffffffffffffffffff1673ffffffffffffffffffffffffffffffffffffffff1673ffffffffffffffffffffffffffffffffffffffff16815260200160078201805480602002602001604051908101604052809291908181526020016000905b82821015610bfb578382906000526020600020018054610b6e90612226565b80601f0160208091040260200160405190810160405280929190818152602001828054610b9a90612226565b8015610be75780601f10610bbc57610100808354040283529160200191610be7565b820191906000526020600020905b815481529060010190602001808311610bca57829003601f168201915b505050505081526020019060010190610b4f565b50505050815250509050919050565b6060600080838152602001908152602001600020600701805480602002602001604051908101604052809291908181526020016000905b82821015610ced578382906000526020600020018054610c6090612226565b80601f0160208091040260200160405190810160405280929190818152602001828054610c8c90612226565b8015610cd95780601f10610cae57610100808354040283529160200191610cd9565b820191906000526020600020905b815481529060010190602001808311610cbc57829003601f168201915b505050505081526020019060010190610c41565b505050509050919050565b3373ffffffffffffffffffffffffffffffffffffffff1660008084815260200190815260200160002060060160009054906101000a900473ffffffffffffffffffffffffffffffffffffffff1673ffffffffffffffffffffffffffffffffffffffff1614610d9b576040517f08c379a0000000000000000000000000000000000000000000000000000000008152600401610d9290611e03565b60405180910390fd5b600080600084815260200190815260200160002090508181600501819055507f79abda1310619fccdd248faadc8b1d749cebddcc8cdbfdfa115964ab2f1219e68383604051610deb929190611fec565b60405180910390a1505050565b60015481565b60016000815480929190610e1190612258565b9190505550606060405180610100016040528060015481526020018481526020018381526020018381526020016040518060400160405280600781526020017f506c616e746564000000000000000000000000000000000000000000000000008152508152602001600081526020013373ffffffffffffffffffffffffffffffffffffffff168152602001828152506000806001548152602001908152602001600020600082015181600001556020820151816001019080519060200190610eda9291906114d8565b506040820151816002019080519060200190610ef79291906114d8565b506060820151816003019080519060200190610f149291906114d8565b506080820151816004019080519060200190610f319291906114d8565b5060a0820151816005015560c08201518160060160006101000a81548173ffffffffffffffffffffffffffffffffffffffff021916908373ffffffffffffffffffffffffffffffffffffffff16021790555060e0820151816007019080519060200190610f9f9291906115b9565b50905050600080600154815260200190815260200160002060070182604051602001610fcb9190611d9f565b6040516020818303038152906040529080600181540180825580915050600190039060005260206000200160009091909190915090805190602001906110129291906114d8565b507fefaf98723debfeed6cea61efc3668a77940d9cc9fc8f7381d0c9452e9ffc1be060015484843360405161104a9493929190611f0e565b60405180910390a1505050565b60606110818260405160200161106d9190611d33565b604051602081830303815290604052611088565b9050919050565b606060006040518060400160405280601081526020017f303132333435363738396162636465660000000000000000000000000000000081525090506000600284516110d4919061214e565b60026110e091906120f8565b67ffffffffffffffff81111561111f577f4e487b7100000000000000000000000000000000000000000000000000000000600052604160045260246000fd5b6040519080825280601f01601f1916602001820160405280156111515781602001600182028036833780820191505090505b5090507f3000000000000000000000000000000000000000000000000000000000000000816000815181106111af577f4e487b7100000000000000000000000000000000000000000000000000000000600052603260045260246000fd5b60200101907effffffffffffffffffffffffffffffffffffffffffffffffffffffffffffff1916908160001a9053507f780000000000000000000000000000000000000000000000000000000000000081600181518110611239577f4e487b7100000000000000000000000000000000000000000000000000000000600052603260045260246000fd5b60200101907effffffffffffffffffffffffffffffffffffffffffffffffffffffffffffff1916908160001a90535060005b84518110156114cd578260048683815181106112b0577f4e487b7100000000000000000000000000000000000000000000000000000000600052603260045260246000fd5b602001015160f81c60f81b7effffffffffffffffffffffffffffffffffffffffffffffffffffffffffffff1916901c60f81c60ff168151811061131c577f4e487b7100000000000000000000000000000000000000000000000000000000600052603260045260246000fd5b602001015160f81c60f81b82600283611335919061214e565b600261134191906120f8565b81518110611378577f4e487b7100000000000000000000000000000000000000000000000000000000600052603260045260246000fd5b60200101907effffffffffffffffffffffffffffffffffffffffffffffffffffffffffffff1916908160001a90535082600f60f81b8683815181106113e6577f4e487b7100000000000000000000000000000000000000000000000000000000600052603260045260246000fd5b602001015160f81c60f81b1660f81c60ff168151811061142f577f4e487b7100000000000000000000000000000000000000000000000000000000600052603260045260246000fd5b602001015160f81c60f81b82600283611448919061214e565b600361145491906120f8565b8151811061148b577f4e487b7100000000000000000000000000000000000000000000000000000000600052603260045260246000fd5b60200101907effffffffffffffffffffffffffffffffffffffffffffffffffffffffffffff1916908160001a90535080806114c590612258565b91505061126b565b508092505050919050565b8280546114e490612226565b90600052602060002090601f016020900481019282611506576000855561154d565b82601f1061151f57805160ff191683800117855561154d565b8280016001018555821561154d579182015b8281111561154c578251825591602001919060010190611531565b5b50905061155a9190611619565b5090565b604051806101000160405280600081526020016060815260200160608152602001606081526020016060815260200160008152602001600073ffffffffffffffffffffffffffffffffffffffff168152602001606081525090565b828054828255906000526020600020908101928215611608579160200282015b828111156116075782518290805190602001906115f79291906114d8565b50916020019190600101906115d9565b5b5090506116159190611636565b5090565b5b8082111561163257600081600090555060010161161a565b5090565b5b80821115611656576000818161164d919061165a565b50600101611637565b5090565b50805461166690612226565b6000825580601f106116785750611697565b601f0160209004906000526020600020908101906116969190611619565b5b50565b60006116ad6116a884612046565b612015565b9050828152602081018484840111156116c557600080fd5b6116d08482856121e4565b509392505050565b600082601f8301126116e957600080fd5b81356116f984826020860161169a565b91505092915050565b60008135905061171181612370565b92915050565b6000806040838503121561172a57600080fd5b600083013567ffffffffffffffff81111561174457600080fd5b611750858286016116d8565b925050602083013567ffffffffffffffff81111561176d57600080fd5b611779858286016116d8565b9150509250929050565b60006020828403121561179557600080fd5b60006117a384828501611702565b91505092915050565b6000806000606084860312156117c157600080fd5b60006117cf86828701611702565b935050602084013567ffffffffffffffff8111156117ec57600080fd5b6117f8868287016116d8565b925050604084013567ffffffffffffffff81111561181557600080fd5b611821868287016116d8565b9150509250925092565b6000806040838503121561183e57600080fd5b600061184c85828601611702565b925050602061185d85828601611702565b9150509250929050565b6000611873838361199a565b905092915050565b611884816121a8565b82525050565b611893816121a8565b82525050565b6118aa6118a5826121a8565b6122a1565b82525050565b60006118bb82612086565b6118c581856120a9565b9350836020820285016118d785612076565b8060005b8581101561191357848403895281516118f48582611867565b94506118ff8361209c565b925060208a019950506001810190506118db565b50829750879550505050505092915050565b600061193082612086565b61193a81856120ba565b93508360208202850161194c85612076565b8060005b8581101561198857848403895281516119698582611867565b94506119748361209c565b925060208a01995050600181019050611950565b50829750879550505050505092915050565b60006119a582612091565b6119af81856120cb565b93506119bf8185602086016121f3565b6119c881612352565b840191505092915050565b60006119de82612091565b6119e881856120dc565b93506119f88185602086016121f3565b611a0181612352565b840191505092915050565b6000611a1782612091565b611a2181856120ed565b9350611a318185602086016121f3565b80840191505092915050565b6000611a4a6008836120ed565b91507f536f6c6420746f200000000000000000000000000000000000000000000000006000830152600882019050919050565b6000611a8a6004836120ed565b91507f20617420000000000000000000000000000000000000000000000000000000006000830152600482019050919050565b6000611aca600b836120ed565b91507f506c616e746564206174200000000000000000000000000000000000000000006000830152600b82019050919050565b6000611b0a6023836120dc565b91507f4f6e6c7920746865206f776e65722063616e207570646174652074686520697460008301527f656d2e00000000000000000000000000000000000000000000000000000000006020830152604082019050919050565b6000611b706021836120dc565b91507f4f6e6c7920746865206f776e65722063616e207365742074686520707269636560008301527f2e000000000000000000000000000000000000000000000000000000000000006020830152604082019050919050565b6000611bd66015836120dc565b91507f496e73756666696369656e74207061796d656e742e00000000000000000000006000830152602082019050919050565b6000611c166020836120dc565b91507f4f776e65722063616e6e6f7420627579207468656972206f776e206974656d2e6000830152602082019050919050565b600061010083016000830151611c626000860182611d15565b5060208301518482036020860152611c7a828261199a565b91505060408301518482036040860152611c94828261199a565b91505060608301518482036060860152611cae828261199a565b91505060808301518482036080860152611cc8828261199a565b91505060a0830151611cdd60a0860182611d15565b5060c0830151611cf060c086018261187b565b5060e083015184820360e0860152611d0882826118b0565b9150508091505092915050565b611d1e816121da565b82525050565b611d2d816121da565b82525050565b6000611d3f8284611899565b60148201915081905092915050565b6000611d5a8285611a0c565b9150611d6582611a7d565b9150611d718284611a0c565b91508190509392505050565b6000611d8882611a3d565b9150611d948284611a0c565b915081905092915050565b6000611daa82611abd565b9150611db68284611a0c565b915081905092915050565b60006020820190508181036000830152611ddb8184611925565b905092915050565b60006020820190508181036000830152611dfc81611afd565b9050919050565b60006020820190508181036000830152611e1c81611b63565b9050919050565b60006020820190508181036000830152611e3c81611bc9565b9050919050565b60006020820190508181036000830152611e5c81611c09565b9050919050565b60006020820190508181036000830152611e7d8184611c49565b905092915050565b6000602082019050611e9a6000830184611d24565b92915050565b6000604082019050611eb56000830185611d24565b611ec2602083018461188a565b9392505050565b6000606082019050611ede6000830186611d24565b8181036020830152611ef081856119d3565b90508181036040830152611f0481846119d3565b9050949350505050565b6000608082019050611f236000830187611d24565b8181036020830152611f3581866119d3565b90508181036040830152611f4981856119d3565b9050611f58606083018461188a565b95945050505050565b600060e082019050611f76600083018a611d24565b8181036020830152611f8881896119d3565b90508181036040830152611f9c81886119d3565b90508181036060830152611fb081876119d3565b90508181036080830152611fc481866119d3565b9050611fd360a0830185611d24565b611fe060c083018461188a565b98975050505050505050565b60006040820190506120016000830185611d24565b61200e6020830184611d24565b9392505050565b6000604051905081810181811067ffffffffffffffff8211171561203c5761203b612323565b5b8060405250919050565b600067ffffffffffffffff82111561206157612060612323565b5b601f19601f8301169050602081019050919050565b6000819050602082019050919050565b600081519050919050565b600081519050919050565b6000602082019050919050565b600082825260208201905092915050565b600082825260208201905092915050565b600082825260208201905092915050565b600082825260208201905092915050565b600081905092915050565b6000612103826121da565b915061210e836121da565b9250827fffffffffffffffffffffffffffffffffffffffffffffffffffffffffffffffff03821115612143576121426122c5565b5b828201905092915050565b6000612159826121da565b9150612164836121da565b9250817fffffffffffffffffffffffffffffffffffffffffffffffffffffffffffffffff048311821515161561219d5761219c6122c5565b5b828202905092915050565b60006121b3826121ba565b9050919050565b600073ffffffffffffffffffffffffffffffffffffffff82169050919050565b6000819050919050565b82818337600083830152505050565b60005b838110156122115780820151818401526020810190506121f6565b83811115612220576000848401525b50505050565b6000600282049050600182168061223e57607f821691505b60208210811415612252576122516122f4565b5b50919050565b6000612263826121da565b91507fffffffffffffffffffffffffffffffffffffffffffffffffffffffffffffffff821415612296576122956122c5565b5b600182019050919050565b60006122ac826122b3565b9050919050565b60006122be82612363565b9050919050565b7f4e487b7100000000000000000000000000000000000000000000000000000000600052601160045260246000fd5b7f4e487b7100000000000000000000000000000000000000000000000000000000600052602260045260246000fd5b7f4e487b7100000000000000000000000000000000000000000000000000000000600052604160045260246000fd5b6000601f19601f8301169050919050565b60008160601b9050919050565b612379816121da565b811461238457600080fd5b5056fea264697066735822122048f101f166802d513402a867d5647bacbc32b3d9d18a447de5266d320f9d695264736f6c63430008000033",
  "immutableReferences": {},
  "source": "// SPDX-License-Identifier: MIT\r\npragma solidity ^0.8.0;\r\n\r\ncontract FoodSupplyChain {\r\n    struct FoodItem {\r\n        uint256 id;\r\n        string name;\r\n        string origin;\r\n        string currentLocation;\r\n        string status;\r\n        uint256 price;\r\n        address owner;\r\n        string[] history;\r\n    }\r\n\r\n    mapping(uint256 => FoodItem) public foodItems;\r\n    uint256 public itemCount;\r\n\r\n    event FoodItemAdded(uint256 id, string name, string origin, address owner);\r\n    event FoodItemUpdated(uint256 id, string currentLocation, string status);\r\n    event FoodItemPriceUpdated(uint256 id, uint256 price);\r\n    event FoodItemSold(uint256 id, address newOwner);\r\n\r\n    function addFoodItem(string memory _name, string memory _origin) public {\r\n        itemCount++;\r\n        string[] memory history;\r\n        foodItems[itemCount] = FoodItem(itemCount, _name, _origin, _origin, \"Planted\", 0, msg.sender, history);\r\n        foodItems[itemCount].history.push(string(abi.encodePacked(\"Planted at \", _origin)));\r\n        emit FoodItemAdded(itemCount, _name, _origin, msg.sender);\r\n    }\r\n\r\n    function updateFoodItem(uint256 _id, string memory _currentLocation, string memory _status) public {\r\n        require(foodItems[_id].owner == msg.sender, \"Only the owner can update the item.\");\r\n        FoodItem storage item = foodItems[_id];\r\n        item.currentLocation = _currentLocation;\r\n        item.status = _status;\r\n        item.history.push(string(abi.encodePacked(_status, \" at \", _currentLocation)));\r\n        emit FoodItemUpdated(_id, _currentLocation, _status);\r\n    }\r\n\r\n    function updateFoodItemPrice(uint256 _id, uint256 _price) public {\r\n        require(foodItems[_id].owner == msg.sender, \"Only the owner can set the price.\");\r\n        FoodItem storage item = foodItems[_id];\r\n        item.price = _price;\r\n        emit FoodItemPriceUpdated(_id, _price);\r\n    }\r\n\r\n    function buyFoodItem(uint256 _id) public payable {\r\n        FoodItem storage item = foodItems[_id];\r\n        require(msg.value >= item.price, \"Insufficient payment.\");\r\n        require(item.owner != msg.sender, \"Owner cannot buy their own item.\");\r\n\r\n        address payable seller = payable(item.owner);\r\n        seller.transfer(msg.value);\r\n\r\n        item.owner = msg.sender;\r\n        item.history.push(string(abi.encodePacked(\"Sold to \", toString(msg.sender))));\r\n        emit FoodItemSold(_id, msg.sender);\r\n    }\r\n\r\n    function getFoodItem(uint256 _id) public view returns (FoodItem memory) {\r\n        return foodItems[_id];\r\n    }\r\n\r\n    function getFoodItemHistory(uint256 _id) public view returns (string[] memory) {\r\n        return foodItems[_id].history;\r\n    }\r\n\r\n    function toString(address account) internal pure returns (string memory) {\r\n        return toString(abi.encodePacked(account));\r\n    }\r\n\r\n    function toString(bytes memory data) internal pure returns (string memory) {\r\n        bytes memory alphabet = \"0123456789abcdef\";\r\n        bytes memory str = new bytes(2 + data.length * 2);\r\n        str[0] = \"0\";\r\n        str[1] = \"x\";\r\n        for (uint i = 0; i < data.length; i++) {\r\n            str[2 + i * 2] = alphabet[uint(uint8(data[i] >> 4))];\r\n            str[3 + i * 2] = alphabet[uint(uint8(data[i] & 0x0f))];\r\n        }\r\n        return string(str);\r\n    }\r\n}\r\n",
  "sourcePath": "D:\\Harika-BMSCE\\6th sem\\BlockChain\\blockchain\\blockchain\\food-supply-chain\\contracts\\FoodSupplyChain.sol",
  "compiler": {
    "name": "solc",
    "version": "0.8.0+commit.c7dfd78e.Emscripten.clang"
  },
  "schemaVersion": "3.4.16",
  "updatedAt": "2024-06-05T13:57:00.846Z",
  "networkType": "ethereum",
  "devdoc": {
    "kind": "dev",
    "methods": {},
    "version": 1
  },
  "userdoc": {
    "kind": "user",
    "methods": {},
    "version": 1
  }
}